:100000004FC069C068C067C066C065C064C063C0D7
:1000100062C061C039C35FC05EC05DC05CC00763C1
:100020004236B79BD8A71A39685618AEBAAB558C6A
:100030001D3CB7CC5763BD6DEDFD753EF6177231B3
:10004000BF000000803F08000000BE922449123E1D
:10005000ABAAAA2ABECDCCCC4C3E00000080BEABE1
:10006000AAAAAA3E00000000BF000000803F0000D6
:10007000000000084178D3BB4387D1133D190E3CE3
:10008000C3BD4282AD2B3E68EC8276BED98FE1A91A
:100090003E4C80EFFFBE01C4FF7F3F000000000028
:1000A00011241FBECFE5D2E0DEBFCDBF10E0A0E639
:1000B000B0E0EAEBF5E102C005900D92AA3BB10772
:1000C000D9F720E0AAEBB0E001C01D92A53FB2072E
:1000D000E1F725D270CA94CF46B321E030E0082E74
:1000E00002C0220F331F0A94E2F750E02423352385
:1000F00002C0359527958A95E2F7822F0895FC0175
:10010000628170E0762F66278381682B80E090E023
:100110001CD520E030E040E251E47ED40895FC019B
:10012000608170E0762F66278181682B80E090E007
:100130000CD520E030E040E251E46ED40895DF9227
:10014000EF92FF920F931F93CF93DF93EC017B010C
:1001500061E070E000D161E070E0CE01FCD08FEC96
:1001600097E00197F1F700C0000060E070E0CE0179
:10017000C6D0A7EBBBE01197F1F700C0000061E02B
:1001800070E0CE01BCD0BAE6BA95F1F700C060E0ED
:1001900070E0CE01E0D08FE891E00197F1F700C068
:1001A0000000D12C95E49A95F1F70000CE0194DF80
:1001B000E82FDD2011F12091BA003091BB00409171
:1001C000BC005091BD006091BE007091BF00809155
:1001D000C0009091C10001E06FD32093BA0030932A
:1001E000BB004093BC005093BD006093BE00709371
:1001F000BF008093C0009093C1009091BA009E2BE5
:100200009093BA00E13019F4A0EAAA95F1F70FEF44
:1002100010E0CE0161DF811105C001501109011507
:100220001105B9F7D394B8E2DB12BCCF2091BA0024
:100230003091BB004091BC005091BD006091BE0068
:100240007091BF008091C0009091C10000E24FD337
:10025000E22FEF77E701E8832091BA003091BB00ED
:100260004091BC005091BD006091BE007091BF00F4
:100270008091C0009091C10008E139D3F22F298309
:100280002091BA003091BB004091BC005091BD005C
:100290006091BE007091BF008091C0009091C1003C
:1002A00000E125D3A22F2A832091BA003091BB0010
:1002B0004091BC005091BD006091BE007091BF00A4
:1002C0008091C0009091C10008E011D32B83409130
:1002D000BA004C833A2F3F0F320F3E0F81E090E07F
:1002E000431302C080E090E0919581959109DF91E0
:1002F000CF911F910F91FF90EF90DF9008956115BE
:10030000710561F498B321E030E0082E01C0220F9E
:100310000A94EAF72095292328BB089561307105D6
:1003200051F021E030E0082E01C0220F0A94EAF7D4
:10033000922F209509C098B3082E01C0660F0A9429
:10034000EAF7962B98BB089588B3892B88BB88B3AE
:10035000822388BBF9CF97B321E030E0082E01C09B
:10036000220F0A94EAF7672B19F0922B97BB089596
:100370002095292327BB089560E070E082E090E09B
:10038000EADF61E070E081E090E0E5DF61E070E0ED
:1003900083E090E0E0DF60E070E081E090E0AFDFDC
:1003A00061E070E083E090E0AACF9B012150310929
:1003B000DC01A60FB71FFC01AF01481B590B421708
:1003C00053073CF440815E9151934C932150310985
:1003D000F3CF0895EF92FF920F931F93CF93DF9384
:1003E0008B019A01FB014AE0E42EF12CEF01C01BC6
:1003F000D10B009731F0B7014CD2805D8193CB01D6
:10040000F5CFF801EC0FFD1F80E3C217D3071CF4F2
:1004100021968193FACFBE01C801C7DFF801EC0F26
:10042000FD1F1082CE01DF91CF911F910F91FF90A0
:10043000EF9008952F923F924F925F926F927F922A
:100440008F929F92AF92BF92CF92DF92EF92FF92E4
:100450000F931F93CF93DF936B017C01EA01890116
:1004600043D34B015C0140E050E0BE01C401B2DF68
:100470001C010115110509F43FC0FE01E80FF91F29
:100480008EE28083B801882777FD8095982F5FD30F
:100490009B01AC0160E070E080E291E44FD42B015D
:1004A0003C01B401882777FD8095982F50D39B019C
:1004B000AC01C701B6014BD22FEF221A320A2C0E23
:1004C0003D1EA3019201CFD30FD3DC01CB01A801C4
:1004D000B101DF91CF911F910F91FF90EF90DF90CD
:1004E000CF90BF90AF909F908F907F906F905F90D4
:1004F0004F903F902F906ECFDF91CF911F910F9132
:10050000FF90EF90DF90CF90BF90AF909F908F9033
:100510007F906F905F904F903F902F900895CF9372
:10052000DF93CDB7DEB7C951D1400FB6F894DEBF27
:100530000FBECDBF2FEF31E14AE7215030404040A0
:10054000E1F700C0000018DF8E01075F1E4F5E015B
:1005500081EFA81A8EEFB80ADE0111964D011E0137
:10056000B1E02B0E3B1EBE016B5E7E4F83E090E040
:10057000E6DD892BC1F7CE018B5E9E4FC0DD2B01DE
:100580003C01CE018B5E9E4FCADD6B017C0121E0F8
:1005900030E0A801C301B2014DDF21E030E0A50148
:1005A000C701B60147DFBF92AF921F930F93A0E63A
:1005B000B0E0BF93AF9331E03F931F929F928F9231
:1005C00022D5F40101900020E9F73197E819F909E3
:1005D000FF93EF93ABE6B0E0BF93AF931F9238E089
:1005E0003F933F922F920FD5E1D078948EE690E022
:1005F00035D14FEF81E19AE7415080409040E1F7DB
:1006000000C0000088E990E029D1C10127D184E928
:1006100090E024D1AFEFB9E628E1A150B0402040EE
:10062000E1F700C0000084EA90E018D1C80116D1BB
:1006300087EA90E013D1C50111D189E690E00ED18F
:1006400087E990E00BD13FEF49E688E13150404027
:100650008040E1F700C000008BEA90E0FFD0F89402
:100660000FB6F894DEBF0FBECDBF8CE390E0BFEFB6
:1006700029E638E1B15020403040E1F700C00000E9
:1006800001970097A1F76FCF1F920F920FB60F92AD
:1006900011248F939F93EF93FF938091D000882331
:1006A00019F18091CF008150E9F48091CC009091B4
:1006B000CD0080FF02C0C09A01C0C0988091CC00DC
:1006C0009091CD00969587959093CD008093CC0026
:1006D0008091CE0081508093CE00811102C0109293
:1006E000D00083E08093CF008091D200811155C06B
:1006F0008091CB008823E9F08091CA0081508093DB
:10070000CA0081114AC01092CB001092D100E09132
:10071000D400F0E08091C900EB52FF4F80838091BC
:10072000D4008F5F8093D4008032B8F11092D4004F
:1007300034C08091D100811110C0B4992EC081E0E5
:100740008093D1001092C90094E09093CA0098E081
:100750009093C8008093C70020C08091CA00815048
:100760008093CA00811119C083E08093CA009091E0
:10077000C700B49B05C08091C900892B8093C90034
:10078000990F9093C7008091C80081508093C80052
:10079000811103C081E08093CB00FF91EF919F9185
:1007A0008F910F900FBE0F901F9018951092D00050
:1007B0001092D1001092D200C09AB89ABC989FB7FC
:1007C000F89481E289BD82E08ABD83BF89B78061E8
:1007D00089BF12BE9FBF08951092D200089581E094
:1007E0008093D20008959091D3008091D4009817FF
:1007F000E1F3E92FF0E0EB52FF4F80819F5F9032F1
:1008000018F49093D30008951092D3000895209186
:10081000D40081E09091D300291301C080E00895B5
:100820001092D4001092D30008958091D0000895C2
:100830009091D0009111FCCF93E09093CF009AE07B
:100840009093CE0090E0880F991F92609093CD0016
:100850008093CC0081E08093D0000895CF93DF9304
:100860007894EC018991882311F0E2DFFBCFF894B2
:10087000DF91CF910895CF93DF93FC018491EF0135
:100880002196882319F0D4DFFE01F8CFDF91CF91B4
:10089000089597FB072E16F4009406D077FD08D034
:1008A00042D007FC05D03EF4909581959F4F089566
:1008B000709561957F4F08950F93083090F0982FB1
:1008C000872F762F652F542F432F322F2227085042
:1008D000F4CF220F331F441F551F661F771F881F39
:1008E000991F0A95B2F70F91089597FB10F8169487
:1008F00000080F93083098F00850232F342F452F0D
:10090000562F672F782F892F902DF4CF0594979528
:1009100087957795679557954795379527950A95C4
:10092000AAF70F910895AA1BBB1B51E107C0AA1F8C
:10093000BB1FA617B70710F0A61BB70B881F991F80
:100940005A95A9F780959095BC01CD01089550580E
:10095000BB27AA270ED04DC13ED130F043D120F0A5
:1009600031F49F3F11F41EF433C10EF4E095E7FB20
:1009700029C1E92F4FD180F3BA17620773078407A3
:10098000950718F071F49EF567C10EF4E0950B2EF3
:10099000BA2FA02D0B01B90190010C01CA01A001D1
:1009A0001124FF27591B99F0593F50F4503E68F12C
:1009B0001A16F040A22F232F342F4427585FF3CF6D
:1009C000469537952795A795F0405395C9F77EF43E
:1009D0001F16BA0B620B730B840BBAF09150A1F087
:1009E000FF0FBB1F661F771F881FC2F70EC0BA0F0D
:1009F000621F731F841F48F4879577956795B79595
:100A0000F7959E3F08F0B3CF9395880F08F099278C
:100A1000EE0F9795879508950CD0EBC0E3D040F08A
:100A2000DAD030F021F45F3F19F0CCC0511115C17C
:100A3000CFC0F0D098F39923C9F35523B1F3951B98
:100A4000550BBB27AA2762177307840738F09F5FEF
:100A50005F4F220F331F441FAA1FA9F333D00E2E5E
:100A60003AF0E0E830D091505040E695001CCAF7CB
:100A700029D0FE2F27D0660F771F881FBB1F261790
:100A800037074807AB07B0E809F0BB0B802DBF0163
:100A9000FF2793585F4F2AF09E3F510568F092C0A0
:100AA000DCC05F3FECF3983EDCF386957795679565
:100AB000B795F7959F5FC9F7880F911D9695879514
:100AC00097F90895E1E0660F771F881FBB1F621733
:100AD00073078407BA0720F0621B730B840BBA0BF1
:100AE000EE1F88F7E095089504D06894B111B5C061
:100AF000089598D088F09F5790F0B92F9927B75153
:100B0000A0F0D1F0660F771F881F991F1AF0BA95D1
:100B1000C9F712C0B13081F09FD0B1E008959CC0F8
:100B2000672F782F8827B85F39F0B93FCCF38695C7
:100B300077956795B395D9F73EF490958095709524
:100B400061957F4F8F4F9F4F0895E89409C097FBA1
:100B50003EF490958095709561957F4F8F4F9F4F94
:100B60009923A9F0F92F96E9BB279395F6958795D8
:100B700077956795B795F111F8CFFAF4BB0F11F49B
:100B800060FF1BC06F5F7F4F8F4F9F4F16C0882342
:100B900011F096E911C0772321F09EE8872F762F78
:100BA00005C0662371F096E8862F70E060E02AF0B9
:100BB0009A95660F771F881FDAF7880F96958795A5
:100BC00097F9089597F99F6780E870E060E00895CD
:100BD0009FEF80EC089500240A9416161706180655
:100BE0000906089500240A94121613061406050631
:100BF0000895092E0394000C11F4882352F0BB0FC2
:100C000040F4BF2B11F460FF04C06F5F7F4F8F4F24
:100C10009F4F089557FD9058440F551F59F05F3F5F
:100C200071F04795880F97FB991F61F09F3F79F00E
:100C300087950895121613061406551FF2CF469590
:100C4000F1DF08C0161617061806991FF1CF869512
:100C50007105610508940895E894BB2766277727F6
:100C6000CB0197F908950AD0C4CFB5DF28F0BADFD9
:100C700018F0952309F0A6CFABCFEFCFCBDFA8F3C9
:100C80009923D9F35523C9F3950F50E0551FAA278F
:100C9000EE27FF27BB2700240894679520F4E20F76
:100CA000F31FB41F0A1E220F331F441FAA1F66958D
:100CB000A9F7779530F4F30FB41F0A1E121E08F43B
:100CC0006395330F441FAA1F221F769599F78795C6
:100CD00020F4B40F0A1E121E631F440FAA1F221F06
:100CE000331F8695A9F7862F712D602D11249F57EC
:100CF00050408AF0E1F088234AF0EE0FFF1FBB1F3F
:100D0000661F771F881F91505040A9F79E3F5105DD
:100D100070F058CFA2CF5F3FECF3983EDCF386959E
:100D200077956795B795F795E7959F5FC1F7FE2B88
:100D3000880F911D9695879597F90895FA01EE0F02
:100D4000FF1F30962105310599F16115710561F498
:100D50008038BFE39B0749F168949038810561F0C2
:100D60008038BFEF9B0741F0992342F5FF3FE10533
:100D70003105210511F1E8940894E795D901AA23DA
:100D800029F4AB2FBE2FF85FD0F310C0FF5F70F4D3
:100D9000A695E0F7F73950F019F0FF3A38F49F774D
:100DA0009F930CD00F9007FC905808953EF010CF01
:100DB00060E070E080E89FE308954FE79F775F93DE
:100DC0004F933F932F939ED02F913F914F915F91DF
:100DD0004ADF05C019F40EF0F5CE3ECFF9CE22DF82
:100DE000C8F39638C0F707F80F92E8942BE33AEA75
:100DF00048EB5FE745DF0F920F920F924DB75EB75A
:100E00000F92C0D0EEE1F0E016D04F915F91EF91DC
:100E1000FF91E595EE1FFF1F49F0FE57E06844275C
:100E2000EE0F441FFA95E1F74195550B32D00F9024
:100E300007FE26C00895DF93CF931F930F93FF9271
:100E4000EF92DF927B018C01689405C0DA2EEF01EE
:100E500015DFFE01E894A5912591359145915591B5
:100E6000AEF3EF0186DDFE019701A801DA9479F770
:100E7000DF90EF90FF900F911F91CF91DF91089538
:100E80009B01AC0160E070E080E89FE3C5CD9ACEA5
:100E9000ACC0C8DEE8F39923D9F3940F511DBBF31E
:100EA0009150504094F059F0882332F0660F771F2C
:100EB000881F91505040C1F79E3F510544F7880F5D
:100EC000911D9695879597F908955F3FACF0983EF0
:100ED0009CF0BB27869577956795B79508F4B16028
:100EE0009395C1F7BB0F58F711F460FFE8CF6F5F20
:100EF0007F4F8F4F9F4FE3CFB0CE0EF076C068CEBE
:100F0000689460CE8FDEC8F39923D1F3C6F3DF93E4
:100F1000CF931F930F93FF92C92FDD2788232AF0C9
:100F20002197660F771F881FDAF720E030E040E84E
:100F30005FEB9FE3883920F0803E30F021968F7779
:100F400007DDE6E4F0E003C003DDE3E7F0E073DF94
:100F50008B01BE01EC01FB2E6F5771097595771F50
:100F6000880B990BF4DD28E132E741E35FE386DE8D
:100F7000AF2D9801AE01FF900F911F91CF91DF919E
:100F8000F8DC37CEFA01DC01AA0FBB1F9B01AC01D4
:100F9000BF5728F422273327442750781FC0B75162
:100FA00088F4AB2F0024469537952795011CA3950F
:100FB000D2F3002069F0220F331F441FB395DAF3F8
:100FC0000DD0C5CC61307105A0E88A07B94630F470
:100FD0009B01AC016627772788279078309621F00F
:100FE000208331834283538308959F3F31F0915092
:100FF00020F4879577956795B795880F911D9695FD
:10100000879597F90895AEE0B0E0E8E0F8E0AAC26D
:101010000D891E898F89988D26E02C831A83098378
:1010200097FF02C080E090E801979E838D83AE0118
:10103000455E5F4F698D7A8DCE01019611D04D814D
:101040005E8157FD0AC02F813885421753070CF483
:101050009A01F801E20FF31F10822E96E4E09EC27F
:10106000ACE0B0E0E5E3F8E06FC27C016B018A011F
:10107000FC0117821682838181FFB0C1CE010196E7
:101080004C01F7019381F60193FD859193FF8191C6
:101090006F01882309F49EC1853239F493FD85914F
:1010A00093FF81916F01853221F4B70190E0B1D1B6
:1010B000E8CF512C312C20E02032A0F48B3269F0A3
:1010C00030F4803259F0833269F420612CC08D32C3
:1010D00039F0803339F4216026C02260246023C0B7
:1010E000286021C027FD27C030ED380F3A3078F452
:1010F00026FF06C0852D6AE01ED2582E530E13C05F
:10110000832D6AE018D2382E330E20620CC08E3246
:1011100021F426FD5FC1206406C08C3611F42068DE
:1011200002C0883641F4F60193FD859193FF8191C9
:101130006F018111C1CF982F9F7D9554933028F472
:101140000C5F1F4FFFE3F9830DC0833631F0833707
:1011500071F0833509F057C021C0F801808189837F
:101160000E5F1F4F44244394512C540114C0380186
:10117000F2E06F0E711CF801A080B18026FF03C061
:10118000652D70E002C06FEF7FEFC5012C8736D16F
:101190002C0183012C852F77222E16C03801F2E016
:1011A0006F0E711CF801A080B18026FF03C0652D71
:1011B00070E002C06FEF7FEFC5012C8714D12C01C6
:1011C0002C852068222E830123FC19C0832D90E0FA
:1011D00048165906A0F4B70180E290E01AD13A947B
:1011E000F5CFF50127FC859127FE81915F01B701BD
:1011F00090E00FD131103A94F1E04F1A51084114A8
:10120000510479F7DEC0843611F0893631F5F801E2
:1012100027FF07C060817181828193810C5F1F4F1E
:1012200008C060817181882777FD8095982F0E5FB7
:101230001F4F2F76B22E97FF09C09095809570951D
:1012400061957F4F8F4F9F4F2068B22E2AE030E08C
:10125000A40111D1A82EA81843C0853729F42F7EE8
:10126000B22E2AE030E025C0F22FF97FBF2E8F3654
:10127000C1F018F4883579F0ADC0803719F088379F
:1012800021F0A8C02F2F2061B22EB4FE0DC08B2DEF
:101290008460B82E09C024FF0AC09F2F9660B92E23
:1012A00006C028E030E005C020E130E002C020E1C7
:1012B00032E0F801B7FE07C06081718182819381BD
:1012C0000C5F1F4F06C06081718180E090E00E5F6F
:1012D0001F4FA401D0D0A82EA818FB2DFF77BF2E3A
:1012E000B6FE0BC02B2D2E7FA51450F4B4FE0AC001
:1012F000B2FC08C02B2D2E7E05C07A2C2B2D03C0EE
:101300007A2C01C0752C24FF0DC0FE01EA0DF11DE1
:101310008081803311F4297E09C022FF06C07394B6
:10132000739404C0822F867809F0739423FD12C051
:1013300020FF06C05A2C731418F4530C5718732C42
:10134000731460F4B70180E290E02C8762D073944C
:101350002C85F6CF731410F4371801C0312C24FFFC
:1013600011C0B70180E390E02C8753D02C8522FF79
:1013700016C021FF03C088E590E002C088E790E036
:10138000B7010CC0822F867851F021FD02C080E2A7
:1013900001C08BE227FD8DE2B70190E03AD0A514A1
:1013A00030F4B70180E390E034D05A94F8CFAA9497
:1013B000F401EA0DF11D8081B70190E02AD0A1105F
:1013C000F6CF332009F45DCEB70180E290E021D062
:1013D0003A94F7CFF7018681978102C08FEF9FEF94
:1013E0002C96E2E1CDC0FC010590615070400110E7
:1013F000D8F7809590958E0F9F1F0895FC0161503E
:10140000704001900110D8F7809590958E0F9F1F26
:1014100008950F931F93CF93DF93182F092FEB019C
:101420008B8181FD03C08FEF9FEF20C082FF10C032
:101430004E815F812C813D81421753077CF4E88106
:10144000F9819F012F5F3F4F39832883108306C0A6
:10145000E885F985812F0995892B29F72E813F8110
:101460002F5F3F4F3F832E83812F902FDF91CF91AE
:101470001F910F910895FA01AA27283061F12031B8
:1014800091F1E8946F936E7F6E5F7F4F8F4F9F4F08
:10149000AF4FB1E040D0B4E03ED0670F781F891F56
:1014A0009A1FA11D680F791F8A1F911DA11D6A0F28
:1014B000711D811D911DA11D22D009F468943F91D9
:1014C000062E000C3019000C000C3019305D3193E1
:1014D000CEF6CF010895462F4770405D4193B3E0AB
:1014E0000FD0C9F7F6CF462F4F70405D4A3318F042
:1014F000495D31FD4052419302D0A9F7EACFB4E0F3
:10150000A6959795879577956795BA95C9F70097AA
:101510006105710508959B01AC010A2E069457954B
:10152000479537952795BA95C9F7620F731F841FA2
:10153000951FA01D0895002480FD060E660F11F072
:101540008695D1F7802D08952F923F924F925F920A
:101550006F927F928F929F92AF92BF92CF92DF92C3
:10156000EF92FF920F931F93CF93DF93CDB7DEB728
:10157000CA1BDB0B0FB6F894DEBF0FBECDBF0994BC
:101580002A88398848885F846E847D848C849B8413
:10159000AA84B984C884DF80EE80FD800C811B8121
:1015A000AA81B981CE0FD11D0FB6F894DEBF0FBE50
:0A15B000CDBFED010895F894FFCFC0
:1015BA00543A25733B483A25733B0025640041544D
:1015CA002B43495053544152543D22544350222CE8
:1015DA00223139322E3136382E302E313031222C0A
:1015EA00353535350D0A0A0041542B4349505345C8
:1015FA004E443D00543A003B483A0041542B43497B
:0A160A0050434C4F53450D0A0A00EF
:00000001FF
